{
  "abi": [
    {
      "inputs": [
        {
          "internalType": "string",
          "name": "_name",
          "type": "string"
        },
        {
          "internalType": "string",
          "name": "_symbol",
          "type": "string"
        },
        {
          "internalType": "address",
          "name": "_underlying",
          "type": "address"
        },
        {
          "internalType": "address",
          "name": "_aUnderlying",
          "type": "address"
        },
        {
          "internalType": "address",
          "name": "_aavePoolProvider",
          "type": "address"
        },
        {
          "internalType": "address",
          "name": "_offsetHelper",
          "type": "address"
        },
        {
          "internalType": "address",
          "name": "_carbonToken",
          "type": "address"
        }
      ],
      "stateMutability": "nonpayable",
      "type": "constructor"
    },
    {
      "inputs": [],
      "name": "AlreadyProcessed",
      "type": "error"
    },
    {
      "inputs": [],
      "name": "WrongSigner",
      "type": "error"
    },
    {
      "inputs": [],
      "name": "ZeroValue",
      "type": "error"
    },
    {
      "anonymous": false,
      "inputs": [
        {
          "indexed": true,
          "internalType": "address",
          "name": "owner",
          "type": "address"
        },
        {
          "indexed": true,
          "internalType": "address",
          "name": "spender",
          "type": "address"
        },
        {
          "indexed": false,
          "internalType": "uint256",
          "name": "value",
          "type": "uint256"
        }
      ],
      "name": "Approval",
      "type": "event"
    },
    {
      "anonymous": false,
      "inputs": [
        {
          "indexed": true,
          "internalType": "address",
          "name": "from",
          "type": "address"
        },
        {
          "indexed": true,
          "internalType": "address",
          "name": "to",
          "type": "address"
        },
        {
          "indexed": false,
          "internalType": "uint256",
          "name": "value",
          "type": "uint256"
        }
      ],
      "name": "Transfer",
      "type": "event"
    },
    {
      "inputs": [],
      "name": "aUnderlying",
      "outputs": [
        {
          "internalType": "contract ERC20",
          "name": "",
          "type": "address"
        }
      ],
      "stateMutability": "view",
      "type": "function"
    },
    {
      "inputs": [],
      "name": "aavePoolProvider",
      "outputs": [
        {
          "internalType": "contract AavePoolProvider",
          "name": "",
          "type": "address"
        }
      ],
      "stateMutability": "view",
      "type": "function"
    },
    {
      "inputs": [
        {
          "internalType": "address",
          "name": "owner",
          "type": "address"
        },
        {
          "internalType": "address",
          "name": "spender",
          "type": "address"
        }
      ],
      "name": "allowance",
      "outputs": [
        {
          "internalType": "uint256",
          "name": "",
          "type": "uint256"
        }
      ],
      "stateMutability": "view",
      "type": "function"
    },
    {
      "inputs": [
        {
          "internalType": "address",
          "name": "spender",
          "type": "address"
        },
        {
          "internalType": "uint256",
          "name": "amount",
          "type": "uint256"
        }
      ],
      "name": "approve",
      "outputs": [
        {
          "internalType": "bool",
          "name": "",
          "type": "bool"
        }
      ],
      "stateMutability": "nonpayable",
      "type": "function"
    },
    {
      "inputs": [
        {
          "internalType": "address",
          "name": "account",
          "type": "address"
        }
      ],
      "name": "balanceOf",
      "outputs": [
        {
          "internalType": "uint256",
          "name": "",
          "type": "uint256"
        }
      ],
      "stateMutability": "view",
      "type": "function"
    },
    {
      "inputs": [],
      "name": "buyCarbonCredits",
      "outputs": [],
      "stateMutability": "nonpayable",
      "type": "function"
    },
    {
      "inputs": [],
      "name": "carbonToken",
      "outputs": [
        {
          "internalType": "address",
          "name": "",
          "type": "address"
        }
      ],
      "stateMutability": "view",
      "type": "function"
    },
    {
      "inputs": [
        {
          "internalType": "address",
          "name": "",
          "type": "address"
        }
      ],
      "name": "counters",
      "outputs": [
        {
          "internalType": "uint256",
          "name": "",
          "type": "uint256"
        }
      ],
      "stateMutability": "view",
      "type": "function"
    },
    {
      "inputs": [],
      "name": "decimals",
      "outputs": [
        {
          "internalType": "uint8",
          "name": "",
          "type": "uint8"
        }
      ],
      "stateMutability": "view",
      "type": "function"
    },
    {
      "inputs": [
        {
          "internalType": "address",
          "name": "spender",
          "type": "address"
        },
        {
          "internalType": "uint256",
          "name": "subtractedValue",
          "type": "uint256"
        }
      ],
      "name": "decreaseAllowance",
      "outputs": [
        {
          "internalType": "bool",
          "name": "",
          "type": "bool"
        }
      ],
      "stateMutability": "nonpayable",
      "type": "function"
    },
    {
      "inputs": [
        {
          "internalType": "uint256",
          "name": "amount",
          "type": "uint256"
        }
      ],
      "name": "deposit",
      "outputs": [],
      "stateMutability": "nonpayable",
      "type": "function"
    },
    {
      "inputs": [
        {
          "internalType": "address",
          "name": "spender",
          "type": "address"
        },
        {
          "internalType": "uint256",
          "name": "addedValue",
          "type": "uint256"
        }
      ],
      "name": "increaseAllowance",
      "outputs": [
        {
          "internalType": "bool",
          "name": "",
          "type": "bool"
        }
      ],
      "stateMutability": "nonpayable",
      "type": "function"
    },
    {
      "inputs": [],
      "name": "name",
      "outputs": [
        {
          "internalType": "string",
          "name": "",
          "type": "string"
        }
      ],
      "stateMutability": "view",
      "type": "function"
    },
    {
      "inputs": [],
      "name": "number",
      "outputs": [
        {
          "internalType": "uint256",
          "name": "",
          "type": "uint256"
        }
      ],
      "stateMutability": "view",
      "type": "function"
    },
    {
      "inputs": [],
      "name": "symbol",
      "outputs": [
        {
          "internalType": "string",
          "name": "",
          "type": "string"
        }
      ],
      "stateMutability": "view",
      "type": "function"
    },
    {
      "inputs": [],
      "name": "totalSupply",
      "outputs": [
        {
          "internalType": "uint256",
          "name": "",
          "type": "uint256"
        }
      ],
      "stateMutability": "view",
      "type": "function"
    },
    {
      "inputs": [],
      "name": "toucan",
      "outputs": [
        {
          "internalType": "contract OffsetHelper",
          "name": "",
          "type": "address"
        }
      ],
      "stateMutability": "view",
      "type": "function"
    },
    {
      "inputs": [
        {
          "internalType": "address",
          "name": "to",
          "type": "address"
        },
        {
          "internalType": "uint256",
          "name": "amount",
          "type": "uint256"
        }
      ],
      "name": "transfer",
      "outputs": [
        {
          "internalType": "bool",
          "name": "",
          "type": "bool"
        }
      ],
      "stateMutability": "nonpayable",
      "type": "function"
    },
    {
      "inputs": [
        {
          "internalType": "address",
          "name": "from",
          "type": "address"
        },
        {
          "internalType": "address",
          "name": "to",
          "type": "address"
        },
        {
          "internalType": "uint256",
          "name": "amount",
          "type": "uint256"
        }
      ],
      "name": "transferFrom",
      "outputs": [
        {
          "internalType": "bool",
          "name": "",
          "type": "bool"
        }
      ],
      "stateMutability": "nonpayable",
      "type": "function"
    },
    {
      "inputs": [
        {
          "internalType": "uint256",
          "name": "id",
          "type": "uint256"
        },
        {
          "internalType": "address",
          "name": "from",
          "type": "address"
        },
        {
          "internalType": "address",
          "name": "recipient",
          "type": "address"
        },
        {
          "internalType": "address",
          "name": "token",
          "type": "address"
        },
        {
          "internalType": "uint256",
          "name": "amount",
          "type": "uint256"
        },
        {
          "internalType": "bytes",
          "name": "signature",
          "type": "bytes"
        }
      ],
      "name": "transferWithSignature",
      "outputs": [],
      "stateMutability": "nonpayable",
      "type": "function"
    },
    {
      "inputs": [],
      "name": "underlying",
      "outputs": [
        {
          "internalType": "contract ERC20",
          "name": "",
          "type": "address"
        }
      ],
      "stateMutability": "view",
      "type": "function"
    },
    {
      "inputs": [
        {
          "internalType": "uint256",
          "name": "amount",
          "type": "uint256"
        }
      ],
      "name": "withdraw",
      "outputs": [],
      "stateMutability": "nonpayable",
      "type": "function"
    }
  ],
  "bytecode": {
    "object": "0x6101006040523480156200001257600080fd5b5060405162001e5738038062001e57833981016040819052620000359162000263565b86866003620000458382620003b9565b506004620000548282620003b9565b5050506001600160a01b03858116608081905285821660a05284821660c081905284831660e052600680546001600160a01b031916938516939093179092556040805163026b1d5f60e01b81529051919263095ea7b392909163026b1d5f9160048083019260209291908290030181865afa158015620000d8573d6000803e3d6000fd5b505050506040513d601f19601f82011682018060405250810190620000fe919062000485565b6040516001600160e01b031960e084901b1681526001600160a01b03909116600482015260001960248201526044016020604051808303816000875af11580156200014d573d6000803e3d6000fd5b505050506040513d601f19601f82011682018060405250810190620001739190620004aa565b5050505050505050620004ce565b634e487b7160e01b600052604160045260246000fd5b600082601f830112620001a957600080fd5b81516001600160401b0380821115620001c657620001c662000181565b604051601f8301601f19908116603f01168101908282118183101715620001f157620001f162000181565b816040528381526020925086838588010111156200020e57600080fd5b600091505b8382101562000232578582018301518183018401529082019062000213565b600093810190920192909252949350505050565b80516001600160a01b03811681146200025e57600080fd5b919050565b600080600080600080600060e0888a0312156200027f57600080fd5b87516001600160401b03808211156200029757600080fd5b620002a58b838c0162000197565b985060208a0151915080821115620002bc57600080fd5b50620002cb8a828b0162000197565b965050620002dc6040890162000246565b9450620002ec6060890162000246565b9350620002fc6080890162000246565b92506200030c60a0890162000246565b91506200031c60c0890162000246565b905092959891949750929550565b600181811c908216806200033f57607f821691505b6020821081036200036057634e487b7160e01b600052602260045260246000fd5b50919050565b601f821115620003b457600081815260208120601f850160051c810160208610156200038f5750805b601f850160051c820191505b81811015620003b0578281556001016200039b565b5050505b505050565b81516001600160401b03811115620003d557620003d562000181565b620003ed81620003e684546200032a565b8462000366565b602080601f8311600181146200042557600084156200040c5750858301515b600019600386901b1c1916600185901b178555620003b0565b600085815260208120601f198616915b82811015620004565788860151825594840194600190910190840162000435565b5085821015620004755787850151600019600388901b60f8161c191681555b5050505050600190811b01905550565b6000602082840312156200049857600080fd5b620004a38262000246565b9392505050565b600060208284031215620004bd57600080fd5b81518015158114620004a357600080fd5b60805160a05160c05160e051611910620005476000396000818161018d01526109970152600081816101cc01528181610e87015261107e01526000818161024f01526108be0152600081816102760152818161046b015281816107e80152818161096001528181610f1e015261112801526119106000f3fe608060405234801561001057600080fd5b50600436106101425760003560e01c806370a08231116100b8578063a457c2d71161007c578063a457c2d7146102f8578063a9059cbb1461030b578063b6b55f251461031e578063be65ab8c14610331578063dd62ed3e14610351578063fe8396181461036457600080fd5b806370a082311461029857806375311fc6146102c157806382a71ef2146102d45780638381f58a146102e757806395d89b41146102f057600080fd5b806323b872dd1161010a57806323b872dd146102005780632e1a7d4d14610213578063313ce5671461022857806339509351146102375780636d9537041461024a5780636f307dc31461027157600080fd5b806306fdde0314610147578063095ea7b3146101655780630b7dd51c1461018857806317c1e379146101c757806318160ddd146101ee575b600080fd5b61014f61036c565b60405161015c9190611457565b60405180910390f35b6101786101733660046114ba565b6103fe565b604051901515815260200161015c565b6101af7f000000000000000000000000000000000000000000000000000000000000000081565b6040516001600160a01b03909116815260200161015c565b6101af7f000000000000000000000000000000000000000000000000000000000000000081565b6002545b60405190815260200161015c565b61017861020e3660046114e6565b610418565b610226610221366004611527565b61043c565b005b6040516012815260200161015c565b6101786102453660046114ba565b6104e4565b6101af7f000000000000000000000000000000000000000000000000000000000000000081565b6101af7f000000000000000000000000000000000000000000000000000000000000000081565b6101f26102a6366004611540565b6001600160a01b031660009081526020819052604090205490565b6102266102cf366004611564565b610506565b6006546101af906001600160a01b031681565b6101f260055481565b61014f610729565b6101786103063660046114ba565b610738565b6101786103193660046114ba565b6107b8565b61022661032c366004611527565b6107c6565b6101f261033f366004611540565b60076020526000908152604090205481565b6101f261035f366004611622565b610873565b61022661089e565b60606003805461037b9061165b565b80601f01602080910402602001604051908101604052809291908181526020018280546103a79061165b565b80156103f45780601f106103c9576101008083540402835291602001916103f4565b820191906000526020600020905b8154815290600101906020018083116103d757829003601f168201915b5050505050905090565b60003361040c818585610a0f565b60019150505b92915050565b600033610426858285610b33565b610431858585610bad565b506001949350505050565b6104463382610d51565b61044f81610e83565b60405163a9059cbb60e01b8152336004820152602481018290527f00000000000000000000000000000000000000000000000000000000000000006001600160a01b03169063a9059cbb906044016020604051808303816000875af11580156104bc573d6000803e3d6000fd5b505050506040513d601f19601f820116820180604052508101906104e09190611695565b5050565b60003361040c8185856104f78383610873565b61050191906116cd565b610a0f565b6001600160a01b038516158061051a575082155b1561053857604051637c946ed760e01b815260040160405180910390fd5b6001600160a01b038616600090815260076020526040902054871461057057604051632bf773b360e11b815260040160405180910390fd5b6040805160208082018a90526bffffffffffffffffffffffff1960608a811b82168486015289811b8216605485015288901b166068830152607c80830187905283518084039091018152609c90920190925280519101207f19457468657265756d205369676e6564204d6573736167653a0a3332000000006000908152601c829052603c81209050600061063a8286868080601f016020809104026020016040519081016040528093929190818152602001838380828437600092019190915250610f9792505050565b9050886001600160a01b0316816001600160a01b03161461066e576040516353c9973560e11b815260040160405180910390fd5b6001600160a01b0389166000908152600760205260409020546106929060016116cd565b6001600160a01b038a81166000908152600760205260409081902092909255905163a9059cbb60e01b81528982166004820152602481018890529088169063a9059cbb906044016020604051808303816000875af11580156106f8573d6000803e3d6000fd5b505050506040513d601f19601f8201168201806040525081019061071c9190611695565b5050505050505050505050565b60606004805461037b9061165b565b600033816107468286610873565b9050838110156107ab5760405162461bcd60e51b815260206004820152602560248201527f45524332303a2064656372656173656420616c6c6f77616e63652062656c6f77604482015264207a65726f60d81b60648201526084015b60405180910390fd5b6104318286868403610a0f565b60003361040c818585610bad565b6040516323b872dd60e01b8152336004820152306024820152604481018290527f00000000000000000000000000000000000000000000000000000000000000006001600160a01b0316906323b872dd906064016020604051808303816000875af1158015610839573d6000803e3d6000fd5b505050506040513d601f19601f8201168201806040525081019061085d9190611695565b506108683382610fbb565b61087061107a565b50565b6001600160a01b03918216600090815260016020908152604080832093909416825291909152205490565b60006108a960025490565b6040516370a0823160e01b81523060048201527f00000000000000000000000000000000000000000000000000000000000000006001600160a01b0316906370a0823190602401602060405180830381865afa15801561090d573d6000803e3d6000fd5b505050506040513d601f19601f8201168201806040525081019061093191906116e0565b61093b91906116f9565b905061094681610e83565b60065460405163226ee4ef60e01b81526001600160a01b037f0000000000000000000000000000000000000000000000000000000000000000811660048301526024820184905291821660448201527f00000000000000000000000000000000000000000000000000000000000000009091169063226ee4ef906064016000604051808303816000875af11580156109e2573d6000803e3d6000fd5b505050506040513d6000823e601f3d908101601f19168201604052610a0a91908101906117e2565b505050565b6001600160a01b038316610a715760405162461bcd60e51b8152602060048201526024808201527f45524332303a20617070726f76652066726f6d20746865207a65726f206164646044820152637265737360e01b60648201526084016107a2565b6001600160a01b038216610ad25760405162461bcd60e51b815260206004820152602260248201527f45524332303a20617070726f766520746f20746865207a65726f206164647265604482015261737360f01b60648201526084016107a2565b6001600160a01b0383811660008181526001602090815260408083209487168084529482529182902085905590518481527f8c5be1e5ebec7d5bd14f71427d1e84f3dd0314c0f7b2291e5b200ac8c7c3b925910160405180910390a3505050565b6000610b3f8484610873565b90506000198114610ba75781811015610b9a5760405162461bcd60e51b815260206004820152601d60248201527f45524332303a20696e73756666696369656e7420616c6c6f77616e636500000060448201526064016107a2565b610ba78484848403610a0f565b50505050565b6001600160a01b038316610c115760405162461bcd60e51b815260206004820152602560248201527f45524332303a207472616e736665722066726f6d20746865207a65726f206164604482015264647265737360d81b60648201526084016107a2565b6001600160a01b038216610c735760405162461bcd60e51b815260206004820152602360248201527f45524332303a207472616e7366657220746f20746865207a65726f206164647260448201526265737360e81b60648201526084016107a2565b6001600160a01b03831660009081526020819052604090205481811015610ceb5760405162461bcd60e51b815260206004820152602660248201527f45524332303a207472616e7366657220616d6f756e7420657863656564732062604482015265616c616e636560d01b60648201526084016107a2565b6001600160a01b03848116600081815260208181526040808320878703905593871680835291849020805487019055925185815290927fddf252ad1be2c89b69c2b068fc378daa952ba7f163c4a11628f55a4df523b3ef910160405180910390a3610ba7565b6001600160a01b038216610db15760405162461bcd60e51b815260206004820152602160248201527f45524332303a206275726e2066726f6d20746865207a65726f206164647265736044820152607360f81b60648201526084016107a2565b6001600160a01b03821660009081526020819052604090205481811015610e255760405162461bcd60e51b815260206004820152602260248201527f45524332303a206275726e20616d6f756e7420657863656564732062616c616e604482015261636560f01b60648201526084016107a2565b6001600160a01b0383166000818152602081815260408083208686039055600280548790039055518581529192917fddf252ad1be2c89b69c2b068fc378daa952ba7f163c4a11628f55a4df523b3ef910160405180910390a3505050565b60007f00000000000000000000000000000000000000000000000000000000000000006001600160a01b031663026b1d5f6040518163ffffffff1660e01b8152600401602060405180830381865afa158015610ee3573d6000803e3d6000fd5b505050506040513d601f19601f82011682018060405250810190610f0791906118a7565b604051631a4ca37b60e21b81526001600160a01b037f00000000000000000000000000000000000000000000000000000000000000008116600483015260248201859052306044830152919250908216906369328dec90606401600060405180830381600087803b158015610f7b57600080fd5b505af1158015610f8f573d6000803e3d6000fd5b505050505050565b6000806000610fa68585611204565b91509150610fb381611249565b509392505050565b6001600160a01b0382166110115760405162461bcd60e51b815260206004820152601f60248201527f45524332303a206d696e7420746f20746865207a65726f20616464726573730060448201526064016107a2565b806002600082825461102391906116cd565b90915550506001600160a01b038216600081815260208181526040808320805486019055518481527fddf252ad1be2c89b69c2b068fc378daa952ba7f163c4a11628f55a4df523b3ef910160405180910390a35050565b60007f00000000000000000000000000000000000000000000000000000000000000006001600160a01b031663026b1d5f6040518163ffffffff1660e01b8152600401602060405180830381865afa1580156110da573d6000803e3d6000fd5b505050506040513d601f19601f820116820180604052508101906110fe91906118a7565b6040516370a0823160e01b81523060048201529091506001600160a01b038083169163617ba037917f000000000000000000000000000000000000000000000000000000000000000091908216906370a0823190602401602060405180830381865afa158015611172573d6000803e3d6000fd5b505050506040513d601f19601f8201168201806040525081019061119691906116e0565b6040516001600160e01b031960e085901b1681526001600160a01b039092166004830152602482015230604482015260006064820152608401600060405180830381600087803b1580156111e957600080fd5b505af11580156111fd573d6000803e3d6000fd5b5050505050565b600080825160410361123a5760208301516040840151606085015160001a61122e87828585611393565b94509450505050611242565b506000905060025b9250929050565b600081600481111561125d5761125d6118c4565b036112655750565b6001816004811115611279576112796118c4565b036112c65760405162461bcd60e51b815260206004820152601860248201527f45434453413a20696e76616c6964207369676e6174757265000000000000000060448201526064016107a2565b60028160048111156112da576112da6118c4565b036113275760405162461bcd60e51b815260206004820152601f60248201527f45434453413a20696e76616c6964207369676e6174757265206c656e6774680060448201526064016107a2565b600381600481111561133b5761133b6118c4565b036108705760405162461bcd60e51b815260206004820152602260248201527f45434453413a20696e76616c6964207369676e6174757265202773272076616c604482015261756560f01b60648201526084016107a2565b6000807f7fffffffffffffffffffffffffffffff5d576e7357a4501ddfe92f46681b20a08311156113ca575060009050600361144e565b6040805160008082526020820180845289905260ff881692820192909252606081018690526080810185905260019060a0016020604051602081039080840390855afa15801561141e573d6000803e3d6000fd5b5050604051601f1901519150506001600160a01b0381166114475760006001925092505061144e565b9150600090505b94509492505050565b600060208083528351808285015260005b8181101561148457858101830151858201604001528201611468565b506000604082860101526040601f19601f8301168501019250505092915050565b6001600160a01b038116811461087057600080fd5b600080604083850312156114cd57600080fd5b82356114d8816114a5565b946020939093013593505050565b6000806000606084860312156114fb57600080fd5b8335611506816114a5565b92506020840135611516816114a5565b929592945050506040919091013590565b60006020828403121561153957600080fd5b5035919050565b60006020828403121561155257600080fd5b813561155d816114a5565b9392505050565b600080600080600080600060c0888a03121561157f57600080fd5b873596506020880135611591816114a5565b955060408801356115a1816114a5565b945060608801356115b1816114a5565b93506080880135925060a088013567ffffffffffffffff808211156115d557600080fd5b818a0191508a601f8301126115e957600080fd5b8135818111156115f857600080fd5b8b602082850101111561160a57600080fd5b60208301945080935050505092959891949750929550565b6000806040838503121561163557600080fd5b8235611640816114a5565b91506020830135611650816114a5565b809150509250929050565b600181811c9082168061166f57607f821691505b60208210810361168f57634e487b7160e01b600052602260045260246000fd5b50919050565b6000602082840312156116a757600080fd5b8151801515811461155d57600080fd5b634e487b7160e01b600052601160045260246000fd5b80820180821115610412576104126116b7565b6000602082840312156116f257600080fd5b5051919050565b81810381811115610412576104126116b7565b634e487b7160e01b600052604160045260246000fd5b604051601f8201601f1916810167ffffffffffffffff8111828210171561174b5761174b61170c565b604052919050565b600067ffffffffffffffff82111561176d5761176d61170c565b5060051b60200190565b600082601f83011261178857600080fd5b8151602061179d61179883611753565b611722565b82815260059290921b840181019181810190868411156117bc57600080fd5b8286015b848110156117d757805183529183019183016117c0565b509695505050505050565b600080604083850312156117f557600080fd5b825167ffffffffffffffff8082111561180d57600080fd5b818501915085601f83011261182157600080fd5b8151602061183161179883611753565b82815260059290921b8401810191818101908984111561185057600080fd5b948201945b83861015611877578551611868816114a5565b82529482019490820190611855565b9188015191965090935050508082111561189057600080fd5b5061189d85828601611777565b9150509250929050565b6000602082840312156118b957600080fd5b815161155d816114a5565b634e487b7160e01b600052602160045260246000fdfea2646970667358221220b1aa0c79e6dcaa986dbee5e35632226ed0d3604009f2f68e17bf3cc9bd2c779764736f6c63430008140033",
    "linkReferences": {}
  },
  "methodIdentifiers": {
    "aUnderlying()": "6d953704",
    "aavePoolProvider()": "17c1e379",
    "allowance(address,address)": "dd62ed3e",
    "approve(address,uint256)": "095ea7b3",
    "balanceOf(address)": "70a08231",
    "buyCarbonCredits()": "fe839618",
    "carbonToken()": "82a71ef2",
    "counters(address)": "be65ab8c",
    "decimals()": "313ce567",
    "decreaseAllowance(address,uint256)": "a457c2d7",
    "deposit(uint256)": "b6b55f25",
    "increaseAllowance(address,uint256)": "39509351",
    "name()": "06fdde03",
    "number()": "8381f58a",
    "symbol()": "95d89b41",
    "totalSupply()": "18160ddd",
    "toucan()": "0b7dd51c",
    "transfer(address,uint256)": "a9059cbb",
    "transferFrom(address,address,uint256)": "23b872dd",
    "transferWithSignature(uint256,address,address,address,uint256,bytes)": "75311fc6",
    "underlying()": "6f307dc3",
    "withdraw(uint256)": "2e1a7d4d"
  },
  "id": 21
}